{
  "_format": "hh3-artifact-1",
  "contractName": "PrivacyPreservingBountyJudge",
  "sourceName": "contracts/PrivacyPreservingBountyJudge.sol",
  "abi": [
    {
      "anonymous": false,
      "inputs": [
        {
          "indexed": true,
          "internalType": "uint256",
          "name": "bountyId",
          "type": "uint256"
        },
        {
          "indexed": true,
          "internalType": "address",
          "name": "submitter",
          "type": "address"
        },
        {
          "indexed": false,
          "internalType": "uint256",
          "name": "revealedIndex",
          "type": "uint256"
        }
      ],
      "name": "AnswerRevealed",
      "type": "event"
    },
    {
      "anonymous": false,
      "inputs": [
        {
          "indexed": true,
          "internalType": "uint256",
          "name": "bountyId",
          "type": "uint256"
        },
        {
          "indexed": true,
          "internalType": "address",
          "name": "owner",
          "type": "address"
        },
        {
          "indexed": false,
          "internalType": "string",
          "name": "title",
          "type": "string"
        },
        {
          "indexed": false,
          "internalType": "uint256",
          "name": "reward",
          "type": "uint256"
        },
        {
          "indexed": false,
          "internalType": "uint256",
          "name": "submissionDeadline",
          "type": "uint256"
        },
        {
          "indexed": false,
          "internalType": "uint256",
          "name": "revealDeadline",
          "type": "uint256"
        }
      ],
      "name": "BountyCreated",
      "type": "event"
    },
    {
      "anonymous": false,
      "inputs": [
        {
          "indexed": true,
          "internalType": "uint256",
          "name": "bountyId",
          "type": "uint256"
        },
        {
          "indexed": true,
          "internalType": "address",
          "name": "submitter",
          "type": "address"
        },
        {
          "indexed": false,
          "internalType": "bytes32",
          "name": "commitment",
          "type": "bytes32"
        }
      ],
      "name": "CommitmentSubmitted",
      "type": "event"
    },
    {
      "anonymous": false,
      "inputs": [
        {
          "indexed": true,
          "internalType": "uint256",
          "name": "bountyId",
          "type": "uint256"
        },
        {
          "indexed": false,
          "internalType": "bytes",
          "name": "llmInput",
          "type": "bytes"
        }
      ],
      "name": "JudgingCompleted",
      "type": "event"
    },
    {
      "anonymous": false,
      "inputs": [
        {
          "indexed": true,
          "internalType": "uint256",
          "name": "bountyId",
          "type": "uint256"
        },
        {
          "indexed": true,
          "internalType": "address",
          "name": "winner",
          "type": "address"
        },
        {
          "indexed": false,
          "internalType": "uint256",
          "name": "winnerIndex",
          "type": "uint256"
        },
        {
          "indexed": false,
          "internalType": "uint256",
          "name": "reward",
          "type": "uint256"
        }
      ],
      "name": "WinnerFinalized",
      "type": "event"
    },
    {
      "inputs": [
        {
          "internalType": "uint256",
          "name": "",
          "type": "uint256"
        }
      ],
      "name": "bounties",
      "outputs": [
        {
          "internalType": "address",
          "name": "owner",
          "type": "address"
        },
        {
          "internalType": "string",
          "name": "title",
          "type": "string"
        },
        {
          "internalType": "string",
          "name": "rubric",
          "type": "string"
        },
        {
          "internalType": "uint256",
          "name": "reward",
          "type": "uint256"
        },
        {
          "internalType": "uint256",
          "name": "submissionDeadline",
          "type": "uint256"
        },
        {
          "internalType": "uint256",
          "name": "revealDeadline",
          "type": "uint256"
        },
        {
          "internalType": "bool",
          "name": "judged",
          "type": "bool"
        },
        {
          "internalType": "bool",
          "name": "finalized",
          "type": "bool"
        },
        {
          "internalType": "uint256",
          "name": "winnerIndex",
          "type": "uint256"
        }
      ],
      "stateMutability": "view",
      "type": "function"
    },
    {
      "inputs": [
        {
          "internalType": "string",
          "name": "title",
          "type": "string"
        },
        {
          "internalType": "string",
          "name": "rubric",
          "type": "string"
        },
        {
          "internalType": "uint256",
          "name": "submissionDeadline",
          "type": "uint256"
        },
        {
          "internalType": "uint256",
          "name": "revealDeadline",
          "type": "uint256"
        }
      ],
      "name": "createBounty",
      "outputs": [
        {
          "internalType": "uint256",
          "name": "bountyId",
          "type": "uint256"
        }
      ],
      "stateMutability": "payable",
      "type": "function"
    },
    {
      "inputs": [
        {
          "internalType": "uint256",
          "name": "bountyId",
          "type": "uint256"
        },
        {
          "internalType": "uint256",
          "name": "winnerIndex",
          "type": "uint256"
        }
      ],
      "name": "finalizeWinner",
      "outputs": [],
      "stateMutability": "nonpayable",
      "type": "function"
    },
    {
      "inputs": [
        {
          "internalType": "uint256",
          "name": "bountyId",
          "type": "uint256"
        }
      ],
      "name": "getParticipantCount",
      "outputs": [
        {
          "internalType": "uint256",
          "name": "",
          "type": "uint256"
        }
      ],
      "stateMutability": "view",
      "type": "function"
    },
    {
      "inputs": [
        {
          "internalType": "uint256",
          "name": "bountyId",
          "type": "uint256"
        },
        {
          "internalType": "uint256",
          "name": "index",
          "type": "uint256"
        }
      ],
      "name": "getRevealedParticipant",
      "outputs": [
        {
          "internalType": "address",
          "name": "",
          "type": "address"
        }
      ],
      "stateMutability": "view",
      "type": "function"
    },
    {
      "inputs": [
        {
          "internalType": "uint256",
          "name": "bountyId",
          "type": "uint256"
        }
      ],
      "name": "getRevealedParticipantCount",
      "outputs": [
        {
          "internalType": "uint256",
          "name": "",
          "type": "uint256"
        }
      ],
      "stateMutability": "view",
      "type": "function"
    },
    {
      "inputs": [
        {
          "internalType": "uint256",
          "name": "bountyId",
          "type": "uint256"
        },
        {
          "internalType": "address",
          "name": "submitter",
          "type": "address"
        }
      ],
      "name": "getSubmission",
      "outputs": [
        {
          "internalType": "bytes32",
          "name": "commitment",
          "type": "bytes32"
        },
        {
          "internalType": "string",
          "name": "answer",
          "type": "string"
        },
        {
          "internalType": "bool",
          "name": "revealed",
          "type": "bool"
        },
        {
          "internalType": "bool",
          "name": "eligible",
          "type": "bool"
        }
      ],
      "stateMutability": "view",
      "type": "function"
    },
    {
      "inputs": [
        {
          "internalType": "uint256",
          "name": "bountyId",
          "type": "uint256"
        },
        {
          "internalType": "bytes",
          "name": "llmInput",
          "type": "bytes"
        }
      ],
      "name": "judgeAll",
      "outputs": [],
      "stateMutability": "nonpayable",
      "type": "function"
    },
    {
      "inputs": [],
      "name": "nextBountyId",
      "outputs": [
        {
          "internalType": "uint256",
          "name": "",
          "type": "uint256"
        }
      ],
      "stateMutability": "view",
      "type": "function"
    },
    {
      "inputs": [
        {
          "internalType": "uint256",
          "name": "",
          "type": "uint256"
        },
        {
          "internalType": "uint256",
          "name": "",
          "type": "uint256"
        }
      ],
      "name": "participants",
      "outputs": [
        {
          "internalType": "address",
          "name": "",
          "type": "address"
        }
      ],
      "stateMutability": "view",
      "type": "function"
    },
    {
      "inputs": [
        {
          "internalType": "uint256",
          "name": "bountyId",
          "type": "uint256"
        },
        {
          "internalType": "string",
          "name": "answer",
          "type": "string"
        },
        {
          "internalType": "bytes32",
          "name": "salt",
          "type": "bytes32"
        }
      ],
      "name": "revealAnswer",
      "outputs": [],
      "stateMutability": "nonpayable",
      "type": "function"
    },
    {
      "inputs": [
        {
          "internalType": "uint256",
          "name": "",
          "type": "uint256"
        },
        {
          "internalType": "uint256",
          "name": "",
          "type": "uint256"
        }
      ],
      "name": "revealedParticipants",
      "outputs": [
        {
          "internalType": "address",
          "name": "",
          "type": "address"
        }
      ],
      "stateMutability": "view",
      "type": "function"
    },
    {
      "inputs": [
        {
          "internalType": "uint256",
          "name": "",
          "type": "uint256"
        },
        {
          "internalType": "address",
          "name": "",
          "type": "address"
        }
      ],
      "name": "submissions",
      "outputs": [
        {
          "internalType": "address",
          "name": "submitter",
          "type": "address"
        },
        {
          "internalType": "bytes32",
          "name": "commitment",
          "type": "bytes32"
        },
        {
          "internalType": "string",
          "name": "answer",
          "type": "string"
        },
        {
          "internalType": "bool",
          "name": "revealed",
          "type": "bool"
        },
        {
          "internalType": "bool",
          "name": "exists",
          "type": "bool"
        },
        {
          "internalType": "bool",
          "name": "eligible",
          "type": "bool"
        }
      ],
      "stateMutability": "view",
      "type": "function"
    },
    {
      "inputs": [
        {
          "internalType": "uint256",
          "name": "bountyId",
          "type": "uint256"
        },
        {
          "internalType": "bytes32",
          "name": "commitment",
          "type": "bytes32"
        }
      ],
      "name": "submitCommitment",
      "outputs": [],
      "stateMutability": "nonpayable",
      "type": "function"
    }
  ],
  "bytecode": "0x608060405260015f55348015610013575f80fd5b50611a1b806100215f395ff3fe6080604052600436106100d9575f3560e01c8063d5198a711161007c578063e31202c011610057578063e31202c014610293578063e6a3d9dc146102a6578063ebf96742146102c5578063fd14fad4146102e4575f80fd5b8063d5198a7114610221578063d8964ee914610240578063dc2f87441461025f575f80fd5b80637a7039f8116100b75780637a7039f81461016757806381fb1fb41461019e57806386ae5fec146101bd578063d2b22a12146101f6575f80fd5b80630e4dbf5c146100dd57806355f0e221146101175780635a7722f114610146575b5f80fd5b3480156100e8575f80fd5b506100fc6100f73660046113c1565b6102f8565b60405161010e9695949392919061143d565b60405180910390f35b348015610122575f80fd5b506101366101313660046113c1565b6103d0565b60405161010e9493929190611483565b348015610151575f80fd5b506101656101603660046114b3565b6104b7565b005b348015610172575f80fd5b506101866101813660046114b3565b6107c8565b6040516001600160a01b03909116815260200161010e565b3480156101a9575f80fd5b506101866101b83660046114b3565b610850565b3480156101c8575f80fd5b506101e86101d73660046114d3565b5f9081526003602052604090205490565b60405190815260200161010e565b348015610201575f80fd5b506101e86102103660046114d3565b5f9081526004602052604090205490565b34801561022c575f80fd5b5061016561023b36600461152f565b610884565b34801561024b575f80fd5b5061016561025a36600461157e565b610b45565b34801561026a575f80fd5b5061027e6102793660046114d3565b610d22565b60405161010e999897969594939291906115c6565b6101e86102a1366004611635565b610e87565b3480156102b1575f80fd5b506101656102c03660046114b3565b61112b565b3480156102d0575f80fd5b506101866102df3660046114b3565b6113a8565b3480156102ef575f80fd5b506101e85f5481565b600260208181525f938452604080852090915291835291208054600182015492820180546001600160a01b03909216939291610333906116ad565b80601f016020809104026020016040519081016040528092919081815260200182805461035f906116ad565b80156103aa5780601f10610381576101008083540402835291602001916103aa565b820191905f5260205f20905b81548152906001019060200180831161038d57829003601f168201915b5050506003909301549192505060ff808216916101008104821691620100009091041686565b5f8281526002602081815260408084206001600160a01b038616855290915282206001810154600382015492820180546060948694859490939092909160ff808216926201000090920416908390610427906116ad565b80601f0160208091040260200160405190810160405280929190818152602001828054610453906116ad565b801561049e5780601f106104755761010080835404028352916020019161049e565b820191905f5260205f20905b81548152906001019060200180831161048157829003601f168201915b5050505050925094509450945094505092959194509250565b5f8281526001602052604090205482906001600160a01b03166104f55760405162461bcd60e51b81526004016104ec906116e5565b60405180910390fd5b5f8381526001602052604090205483906001600160a01b031633146105505760405162461bcd60e51b815260206004820152601160248201527027b7363c903137bab73a3c9037bbb732b960791b60448201526064016104ec565b5f848152600160205260409020600681015460ff166105a85760405162461bcd60e51b81526020600482015260146024820152734a756467696e67206e6f7420636f6d706c65746560601b60448201526064016104ec565b6006810154610100900460ff16156105f65760405162461bcd60e51b8152602060048201526011602482015270105b1c9958591e48199a5b985b1a5e9959607a1b60448201526064016104ec565b5f8581526004602052604090205484106106495760405162461bcd60e51b8152602060048201526014602482015273092dcecc2d8d2c840eed2dcdccae440d2dcc8caf60631b60448201526064016104ec565b5f85815260046020526040812080548690811061066857610668611714565b5f918252602090912001546001600160a01b03169050806106bc5760405162461bcd60e51b815260206004820152600e60248201526d24b73b30b634b2103bb4b73732b960911b60448201526064016104ec565b60068201805461ff001916610100179055600782018590556003820180545f918290556040519091906001600160a01b0384169083908381818185875af1925050503d805f8114610728576040519150601f19603f3d011682016040523d82523d5f602084013e61072d565b606091505b50509050806107775760405162461bcd60e51b815260206004820152601660248201527514995dd85c99081d1c985b9cd9995c8819985a5b195960521b60448201526064016104ec565b60408051888152602081018490526001600160a01b038516918a917f7b73d5867b9d93f2fde9600c065386949b5325070cd76f2725d84d21758e0f8291015b60405180910390a35050505050505050565b5f8281526004602052604081205482106108145760405162461bcd60e51b815260206004820152600d60248201526c092dcecc2d8d2c840d2dcc8caf609b1b60448201526064016104ec565b5f83815260046020526040902080548390811061083357610833611714565b5f918252602090912001546001600160a01b031690505b92915050565b6003602052815f5260405f208181548110610869575f80fd5b5f918252602090912001546001600160a01b03169150829050565b5f8481526001602052604090205484906001600160a01b03166108b95760405162461bcd60e51b81526004016104ec906116e5565b5f8581526001602090815260408083206002835281842033855290925290912060048201544210156109225760405162461bcd60e51b815260206004820152601260248201527114995d99585b081b9bdd081cdd185c9d195960721b60448201526064016104ec565b816005015442106109655760405162461bcd60e51b815260206004820152600d60248201526c14995d99585b0818db1bdcd959609a1b60448201526064016104ec565b6003810154610100900460ff166109b45760405162461bcd60e51b8152602060048201526013602482015272139bc818dbdb5b5a5d1b595b9d08199bdd5b99606a1b60448201526064016104ec565b600381015460ff16156109fc5760405162461bcd60e51b815260206004820152601060248201526f105b1c9958591e481c995d99585b195960821b60448201526064016104ec565b84610a385760405162461bcd60e51b815260206004820152600c60248201526b22b6b83a3c9030b739bbb2b960a11b60448201526064016104ec565b5f868686338b604051602001610a52959493929190611728565b60405160208183030381529060405280519060200120905081600101548114610aae5760405162461bcd60e51b815260206004820152600e60248201526d125b9d985b1a59081c995d99585b60921b60448201526064016104ec565b60028201610abd8789836117b9565b5060038201805462ff00ff1916620100011790555f8881526004602090815260408220805460018181018355828552928420018054336001600160a01b03199091168117909155928b9052548a917f6c90b501c3ab8391de89e2d4c93b2db6a5ee7e841bc9d4726a66323a4367291c91610b379190611887565b6040519081526020016107b6565b5f8381526001602052604090205483906001600160a01b0316610b7a5760405162461bcd60e51b81526004016104ec906116e5565b5f8481526001602052604090205484906001600160a01b03163314610bd55760405162461bcd60e51b815260206004820152601160248201527027b7363c903137bab73a3c9037bbb732b960791b60448201526064016104ec565b5f8581526001602052604090206005810154421015610c2f5760405162461bcd60e51b815260206004820152601660248201527514995d99585b081c1a185cd9481b9bdd08195b99195960521b60448201526064016104ec565b600681015460ff1615610c755760405162461bcd60e51b815260206004820152600e60248201526d105b1c9958591e481a9d5919d95960921b60448201526064016104ec565b5f86815260046020526040902054610ccf5760405162461bcd60e51b815260206004820152601760248201527f4e6f2072657665616c6564207375626d697373696f6e7300000000000000000060448201526064016104ec565b60068101805460ff1916600117905560405186907f71c94bf940ecbcb45eb4357688f52eceee2a208b019fb9ca45a894dbe0cff34490610d1290889088906118c2565b60405180910390a2505050505050565b600160208190525f9182526040909120805491810180546001600160a01b0390931692610d4e906116ad565b80601f0160208091040260200160405190810160405280929190818152602001828054610d7a906116ad565b8015610dc55780601f10610d9c57610100808354040283529160200191610dc5565b820191905f5260205f20905b815481529060010190602001808311610da857829003601f168201915b505050505090806002018054610dda906116ad565b80601f0160208091040260200160405190810160405280929190818152602001828054610e06906116ad565b8015610e515780601f10610e2857610100808354040283529160200191610e51565b820191905f5260205f20905b815481529060010190602001808311610e3457829003601f168201915b505050600384015460048501546005860154600687015460079097015495969295919450925060ff808316926101009004169089565b5f803411610ec95760405162461bcd60e51b815260206004820152600f60248201526e14995dd85c99081c995c5d5a5c9959608a1b60448201526064016104ec565b428311610f185760405162461bcd60e51b815260206004820152601b60248201527f496e76616c6964207375626d697373696f6e20646561646c696e65000000000060448201526064016104ec565b828211610f675760405162461bcd60e51b815260206004820152601760248201527f496e76616c69642072657665616c20646561646c696e6500000000000000000060448201526064016104ec565b5f80549080610f75836118dd565b919050559050604051806101200160405280336001600160a01b0316815260200188888080601f0160208091040260200160405190810160405280939291908181526020018383808284375f92019190915250505090825250604080516020601f8901819004810282018101909252878152918101919088908890819084018382808284375f9201829052509385525050346020808501919091526040808501899052606085018890526080850184905260a0850184905260c0909401839052858352600180825293909220845181546001600160a01b0319166001600160a01b039091161781559184015191928301916110719150826118f5565b506040820151600282019061108690826118f5565b50606082015160038201556080820151600482015560a0820151600582015560c082015160068201805460e085015161ffff1990911692151561ff00191692909217610100921515830217905590910151600790910155604051339082907f736ab752f6714f3191bc874ebe0b24d2daa1e5a5281882b7c59d90d19c45fda490611119908b908b9034908a908a906119b5565b60405180910390a39695505050505050565b5f8281526001602052604090205482906001600160a01b03166111605760405162461bcd60e51b81526004016104ec906116e5565b5f838152600160205260409020600481015442106111b45760405162461bcd60e51b815260206004820152601160248201527014dd589b5a5cdcda5bdb8818db1bdcd959607a1b60448201526064016104ec565b826111f65760405162461bcd60e51b8152602060048201526012602482015271125b9d985b1a590818dbdb5b5a5d1b595b9d60721b60448201526064016104ec565b5f848152600260209081526040808320338452909152902060030154610100900460ff161561125b5760405162461bcd60e51b8152602060048201526011602482015270105b1c9958591e481cdd589b5a5d1d1959607a1b60448201526064016104ec565b6040805160c081018252338082526020808301878152845180830186525f8082528587019182526060860181905260016080870181905260a087018290528b825260028086528883209683529590945295909520845181546001600160a01b0319166001600160a01b039091161781559051918101919091559251919291908201906112e790826118f5565b50606082015160039182018054608085015160a0909501511515620100000262ff0000199515156101000261ff00199415159490941661ffff19909216919091179290921793909316179091555f8581526020918252604080822080546001810182559083529290912090910180546001600160a01b03191633908117909155905185907f6459ffc8e2e6aea1e7a6161f54ca96e0b0c83db7191f26ccf5c33e14f7f178c59061139a9087815260200190565b60405180910390a350505050565b6004602052815f5260405f208181548110610869575f80fd5b5f80604083850312156113d2575f80fd5b8235915060208301356001600160a01b03811681146113ef575f80fd5b809150509250929050565b5f81518084525f5b8181101561141e57602081850181015186830182015201611402565b505f602082860101526020601f19601f83011685010191505092915050565b60018060a01b038716815285602082015260c060408201525f61146360c08301876113fa565b9415156060830152509115156080830152151560a0909101529392505050565b848152608060208201525f61149b60808301866113fa565b93151560408301525090151560609091015292915050565b5f80604083850312156114c4575f80fd5b50508035926020909101359150565b5f602082840312156114e3575f80fd5b5035919050565b5f8083601f8401126114fa575f80fd5b50813567ffffffffffffffff811115611511575f80fd5b602083019150836020828501011115611528575f80fd5b9250929050565b5f805f8060608587031215611542575f80fd5b84359350602085013567ffffffffffffffff81111561155f575f80fd5b61156b878288016114ea565b9598909750949560400135949350505050565b5f805f60408486031215611590575f80fd5b83359250602084013567ffffffffffffffff8111156115ad575f80fd5b6115b9868287016114ea565b9497909650939450505050565b6001600160a01b038a168152610120602082018190525f906115ea8382018c6113fa565b905082810360408401526115fe818b6113fa565b60608401999099525050608081019590955260a085019390935290151560c0840152151560e0830152610100909101529392505050565b5f805f805f806080878903121561164a575f80fd5b863567ffffffffffffffff80821115611661575f80fd5b61166d8a838b016114ea565b90985096506020890135915080821115611685575f80fd5b5061169289828a016114ea565b979a9699509760408101359660609091013595509350505050565b600181811c908216806116c157607f821691505b6020821081036116df57634e487b7160e01b5f52602260045260245ffd5b50919050565b602080825260159082015274109bdd5b9d1e48191bd95cc81b9bdd08195e1a5cdd605a1b604082015260600190565b634e487b7160e01b5f52603260045260245ffd5b8486823790930191825260601b6bffffffffffffffffffffffff191660208201526034810191909152605401919050565b634e487b7160e01b5f52604160045260245ffd5b601f8211156117b457805f5260205f20601f840160051c810160208510156117925750805b601f840160051c820191505b818110156117b1575f815560010161179e565b50505b505050565b67ffffffffffffffff8311156117d1576117d1611759565b6117e5836117df83546116ad565b8361176d565b5f601f841160018114611816575f85156117ff5750838201355b5f19600387901b1c1916600186901b1783556117b1565b5f83815260208120601f198716915b828110156118455786850135825560209485019460019092019101611825565b5086821015611861575f1960f88860031b161c19848701351681555b505060018560011b0183555050505050565b634e487b7160e01b5f52601160045260245ffd5b8181038181111561084a5761084a611873565b81835281816020850137505f828201602090810191909152601f909101601f19169091010190565b602081525f6118d560208301848661189a565b949350505050565b5f600182016118ee576118ee611873565b5060010190565b815167ffffffffffffffff81111561190f5761190f611759565b6119238161191d84546116ad565b8461176d565b602080601f831160018114611956575f841561193f5750858301515b5f19600386901b1c1916600185901b1785556119ad565b5f85815260208120601f198616915b8281101561198457888601518255948401946001909101908401611965565b50858210156119a157878501515f19600388901b60f8161c191681555b505060018460011b0185555b505050505050565b608081525f6119c860808301878961189a565b60208301959095525060408101929092526060909101529291505056fea2646970667358221220623fadd39a4f3bb9005f6b6779fee2aa1fc597096656167fe66219aa25c578d264736f6c63430008180033",
  "linkReferences": {},
  "deployedLinkReferences": {},
  "immutableReferences": {},
  "inputSourceName": "project/contracts/PrivacyPreservingBountyJudge.sol",
  "buildInfoId": "solc-0_8_24-a94b7f8673f4bee5f0e6eeac649bf86470d30e49"
}